{
  "description": "EIP-1559 transaction signing fixtures for virtual chain 13371337",
  "virtual_chain_id": "13371337",
  "generated_at": "2025-12-17T15:50:52.026Z",
  "transactions": [
    {
      "name": "simple_transfer_1_eth",
      "description": "Transfer 1 ETH from account_0 to account_1, nonce 0",
      "signer": {
        "address": "0xf39Fd6e51aad88F6F4ce6aB8827279cffFb92266",
        "privateKey": "0xac0974bec39a17e36ba4a6b4d238ff944bacb478cbed5efcae784d7bf4f2ff80"
      },
      "transaction": {
        "chainId": "13371337",
        "nonce": "0",
        "maxPriorityFeePerGas": "1000000000",
        "maxFeePerGas": "30000000000",
        "gas": "21000",
        "to": "0x70997970C51812dc3A010C7d01b50e0d17dc79C8",
        "value": "1000000000000000000"
      },
      "unsigned_hash": "0x89ee7397becb63652bfaa3bd4b2fa067fc9758ec4b681504a6ef8d95828e2084",
      "signed_raw": "0x02f87683cc07c980843b9aca008506fc23ac008252089470997970c51812dc3a010c7d01b50e0d17dc79c8880de0b6b3a764000080c080a0eb07efbaff2915c6728fed2eb7bf48ca75b0cc490ed73afa67dd5ed5f93fcd5da00e37a2a804abc72ff43cd247a1c88a868546a1312753e18ce84edd0528ff28c5",
      "signature": {
        "r": "0xeb07efbaff2915c6728fed2eb7bf48ca75b0cc490ed73afa67dd5ed5f93fcd5d",
        "s": "0x0e37a2a804abc72ff43cd247a1c88a868546a1312753e18ce84edd0528ff28c5",
        "yParity": 0
      },
      "recovered_pubkey": {
        "x": "0x0x8318535b54105d4a7aae60c08fc45f9687181b4fdfc625bd1a753fa7397fed75",
        "y": "0x0x3547f11ca8696646f2f3acb08e31016afac23e630c5d11f59f61fef57b0d2aa5",
        "uncompressed": "0x048318535b54105d4a7aae60c08fc45f9687181b4fdfc625bd1a753fa7397fed753547f11ca8696646f2f3acb08e31016afac23e630c5d11f59f61fef57b0d2aa5"
      },
      "circuit_inputs": {
        "message_hash": [
          137,
          238,
          115,
          151,
          190,
          203,
          99,
          101,
          43,
          250,
          163,
          189,
          75,
          47,
          160,
          103,
          252,
          151,
          88,
          236,
          75,
          104,
          21,
          4,
          166,
          239,
          141,
          149,
          130,
          142,
          32,
          132
        ],
        "pubkey_x": [
          131,
          24,
          83,
          91,
          84,
          16,
          93,
          74,
          122,
          174,
          96,
          192,
          143,
          196,
          95,
          150,
          135,
          24,
          27,
          79,
          223,
          198,
          37,
          189,
          26,
          117,
          63,
          167,
          57,
          127,
          237,
          117
        ],
        "pubkey_y": [
          53,
          71,
          241,
          28,
          168,
          105,
          102,
          70,
          242,
          243,
          172,
          176,
          142,
          49,
          1,
          106,
          250,
          194,
          62,
          99,
          12,
          93,
          17,
          245,
          159,
          97,
          254,
          245,
          123,
          13,
          42,
          165
        ],
        "signature_r": [
          235,
          7,
          239,
          186,
          255,
          41,
          21,
          198,
          114,
          143,
          237,
          46,
          183,
          191,
          72,
          202,
          117,
          176,
          204,
          73,
          14,
          215,
          58,
          250,
          103,
          221,
          94,
          213,
          249,
          63,
          205,
          93
        ],
        "signature_s": [
          14,
          55,
          162,
          168,
          4,
          171,
          199,
          47,
          244,
          60,
          210,
          71,
          161,
          200,
          138,
          134,
          133,
          70,
          161,
          49,
          39,
          83,
          225,
          140,
          232,
          78,
          221,
          5,
          40,
          255,
          40,
          197
        ],
        "to_bytes": [
          112,
          153,
          121,
          112,
          197,
          24,
          18,
          220,
          58,
          1,
          12,
          125,
          1,
          181,
          14,
          13,
          23,
          220,
          121,
          200
        ],
        "value_bytes": [
          0,
          0,
          0,
          0,
          0,
          0,
          0,
          0,
          0,
          0,
          0,
          0,
          0,
          0,
          0,
          0,
          0,
          0,
          0,
          0,
          0,
          0,
          0,
          0,
          13,
          224,
          182,
          179,
          167,
          100,
          0,
          0
        ]
      }
    },
    {
      "name": "withdrawal_to_sentinel",
      "description": "Withdrawal: send 0.5 ETH to sentinel address 0x1, nonce 1",
      "signer": {
        "address": "0xf39Fd6e51aad88F6F4ce6aB8827279cffFb92266",
        "privateKey": "0xac0974bec39a17e36ba4a6b4d238ff944bacb478cbed5efcae784d7bf4f2ff80"
      },
      "transaction": {
        "chainId": "13371337",
        "nonce": "1",
        "maxPriorityFeePerGas": "1000000000",
        "maxFeePerGas": "30000000000",
        "gas": "21000",
        "to": "0x0000000000000000000000000000000000000001",
        "value": "500000000000000000"
      },
      "unsigned_hash": "0x71f39ba3735b50936b9104f3daad67708ac6be21afd870d16cb81142bde86e58",
      "signed_raw": "0x02f87683cc07c901843b9aca008506fc23ac008252089400000000000000000000000000000000000000018806f05b59d3b2000080c080a0d260d2dc140f6720560ac4bbac0f4192acd94ce0069e5e8bfe3bc536778a6bcba015d352e6d09d367eb478bf84171ff6e5df31e12181abc5da804ac806c8d528d3",
      "signature": {
        "r": "0xd260d2dc140f6720560ac4bbac0f4192acd94ce0069e5e8bfe3bc536778a6bcb",
        "s": "0x15d352e6d09d367eb478bf84171ff6e5df31e12181abc5da804ac806c8d528d3",
        "yParity": 0
      },
      "recovered_pubkey": {
        "x": "0x0x8318535b54105d4a7aae60c08fc45f9687181b4fdfc625bd1a753fa7397fed75",
        "y": "0x0x3547f11ca8696646f2f3acb08e31016afac23e630c5d11f59f61fef57b0d2aa5",
        "uncompressed": "0x048318535b54105d4a7aae60c08fc45f9687181b4fdfc625bd1a753fa7397fed753547f11ca8696646f2f3acb08e31016afac23e630c5d11f59f61fef57b0d2aa5"
      },
      "circuit_inputs": {
        "message_hash": [
          113,
          243,
          155,
          163,
          115,
          91,
          80,
          147,
          107,
          145,
          4,
          243,
          218,
          173,
          103,
          112,
          138,
          198,
          190,
          33,
          175,
          216,
          112,
          209,
          108,
          184,
          17,
          66,
          189,
          232,
          110,
          88
        ],
        "pubkey_x": [
          131,
          24,
          83,
          91,
          84,
          16,
          93,
          74,
          122,
          174,
          96,
          192,
          143,
          196,
          95,
          150,
          135,
          24,
          27,
          79,
          223,
          198,
          37,
          189,
          26,
          117,
          63,
          167,
          57,
          127,
          237,
          117
        ],
        "pubkey_y": [
          53,
          71,
          241,
          28,
          168,
          105,
          102,
          70,
          242,
          243,
          172,
          176,
          142,
          49,
          1,
          106,
          250,
          194,
          62,
          99,
          12,
          93,
          17,
          245,
          159,
          97,
          254,
          245,
          123,
          13,
          42,
          165
        ],
        "signature_r": [
          210,
          96,
          210,
          220,
          20,
          15,
          103,
          32,
          86,
          10,
          196,
          187,
          172,
          15,
          65,
          146,
          172,
          217,
          76,
          224,
          6,
          158,
          94,
          139,
          254,
          59,
          197,
          54,
          119,
          138,
          107,
          203
        ],
        "signature_s": [
          21,
          211,
          82,
          230,
          208,
          157,
          54,
          126,
          180,
          120,
          191,
          132,
          23,
          31,
          246,
          229,
          223,
          49,
          225,
          33,
          129,
          171,
          197,
          218,
          128,
          74,
          200,
          6,
          200,
          213,
          40,
          211
        ],
        "to_bytes": [
          0,
          0,
          0,
          0,
          0,
          0,
          0,
          0,
          0,
          0,
          0,
          0,
          0,
          0,
          0,
          0,
          0,
          0,
          0,
          1
        ],
        "value_bytes": [
          0,
          0,
          0,
          0,
          0,
          0,
          0,
          0,
          0,
          0,
          0,
          0,
          0,
          0,
          0,
          0,
          0,
          0,
          0,
          0,
          0,
          0,
          0,
          0,
          6,
          240,
          91,
          89,
          211,
          178,
          0,
          0
        ]
      }
    },
    {
      "name": "large_transfer_100_eth",
      "description": "Transfer 100 ETH with nonce 5",
      "signer": {
        "address": "0xf39Fd6e51aad88F6F4ce6aB8827279cffFb92266",
        "privateKey": "0xac0974bec39a17e36ba4a6b4d238ff944bacb478cbed5efcae784d7bf4f2ff80"
      },
      "transaction": {
        "chainId": "13371337",
        "nonce": "5",
        "maxPriorityFeePerGas": "2000000000",
        "maxFeePerGas": "50000000000",
        "gas": "21000",
        "to": "0x70997970C51812dc3A010C7d01b50e0d17dc79C8",
        "value": "100000000000000000000"
      },
      "unsigned_hash": "0x33b0a71b11b8c375d8d04f38cec1967fd7e2e0ce0bfcc3ece1cce813ca5da4ea",
      "signed_raw": "0x02f87783cc07c9058477359400850ba43b74008252089470997970c51812dc3a010c7d01b50e0d17dc79c889056bc75e2d6310000080c001a0e06092b62ff1050433f8e7c03f8fb5ae237a4beae0a97215a41724c718ec030fa006420b3d775a4fbbf081b43925d0855a2ee481da4666962b38c3af58e2772786",
      "signature": {
        "r": "0xe06092b62ff1050433f8e7c03f8fb5ae237a4beae0a97215a41724c718ec030f",
        "s": "0x06420b3d775a4fbbf081b43925d0855a2ee481da4666962b38c3af58e2772786",
        "yParity": 1
      },
      "recovered_pubkey": {
        "x": "0x0x8318535b54105d4a7aae60c08fc45f9687181b4fdfc625bd1a753fa7397fed75",
        "y": "0x0x3547f11ca8696646f2f3acb08e31016afac23e630c5d11f59f61fef57b0d2aa5",
        "uncompressed": "0x048318535b54105d4a7aae60c08fc45f9687181b4fdfc625bd1a753fa7397fed753547f11ca8696646f2f3acb08e31016afac23e630c5d11f59f61fef57b0d2aa5"
      },
      "circuit_inputs": {
        "message_hash": [
          51,
          176,
          167,
          27,
          17,
          184,
          195,
          117,
          216,
          208,
          79,
          56,
          206,
          193,
          150,
          127,
          215,
          226,
          224,
          206,
          11,
          252,
          195,
          236,
          225,
          204,
          232,
          19,
          202,
          93,
          164,
          234
        ],
        "pubkey_x": [
          131,
          24,
          83,
          91,
          84,
          16,
          93,
          74,
          122,
          174,
          96,
          192,
          143,
          196,
          95,
          150,
          135,
          24,
          27,
          79,
          223,
          198,
          37,
          189,
          26,
          117,
          63,
          167,
          57,
          127,
          237,
          117
        ],
        "pubkey_y": [
          53,
          71,
          241,
          28,
          168,
          105,
          102,
          70,
          242,
          243,
          172,
          176,
          142,
          49,
          1,
          106,
          250,
          194,
          62,
          99,
          12,
          93,
          17,
          245,
          159,
          97,
          254,
          245,
          123,
          13,
          42,
          165
        ],
        "signature_r": [
          224,
          96,
          146,
          182,
          47,
          241,
          5,
          4,
          51,
          248,
          231,
          192,
          63,
          143,
          181,
          174,
          35,
          122,
          75,
          234,
          224,
          169,
          114,
          21,
          164,
          23,
          36,
          199,
          24,
          236,
          3,
          15
        ],
        "signature_s": [
          6,
          66,
          11,
          61,
          119,
          90,
          79,
          187,
          240,
          129,
          180,
          57,
          37,
          208,
          133,
          90,
          46,
          228,
          129,
          218,
          70,
          102,
          150,
          43,
          56,
          195,
          175,
          88,
          226,
          119,
          39,
          134
        ],
        "to_bytes": [
          112,
          153,
          121,
          112,
          197,
          24,
          18,
          220,
          58,
          1,
          12,
          125,
          1,
          181,
          14,
          13,
          23,
          220,
          121,
          200
        ],
        "value_bytes": [
          0,
          0,
          0,
          0,
          0,
          0,
          0,
          0,
          0,
          0,
          0,
          0,
          0,
          0,
          0,
          0,
          0,
          0,
          0,
          0,
          0,
          0,
          0,
          5,
          107,
          199,
          94,
          45,
          99,
          16,
          0,
          0
        ]
      }
    }
  ]
}